{
  "contractName": "TodoList",
  "abi": [
    {
      "anonymous": false,
      "inputs": [
        {
          "indexed": false,
          "internalType": "uint256",
          "name": "id",
          "type": "uint256"
        },
        {
          "indexed": false,
          "internalType": "uint256",
          "name": "date",
          "type": "uint256"
        },
        {
          "indexed": false,
          "internalType": "string",
          "name": "content",
          "type": "string"
        }
      ],
      "name": "TaskCreated",
      "type": "event"
    },
    {
      "anonymous": false,
      "inputs": [
        {
          "indexed": false,
          "internalType": "uint256",
          "name": "id",
          "type": "uint256"
        },
        {
          "indexed": false,
          "internalType": "bool",
          "name": "done",
          "type": "bool"
        }
      ],
      "name": "TaskStatusToggled",
      "type": "event"
    },
    {
      "constant": false,
      "inputs": [
        {
          "internalType": "string",
          "name": "_content",
          "type": "string"
        }
      ],
      "name": "createTask",
      "outputs": [],
      "payable": false,
      "stateMutability": "nonpayable",
      "type": "function"
    },
    {
      "constant": false,
      "inputs": [
        {
          "internalType": "uint256",
          "name": "id",
          "type": "uint256"
        }
      ],
      "name": "toggleTaskStatus",
      "outputs": [],
      "payable": false,
      "stateMutability": "nonpayable",
      "type": "function"
    },
    {
      "constant": true,
      "inputs": [],
      "name": "getTaskIds",
      "outputs": [
        {
          "internalType": "uint256[]",
          "name": "",
          "type": "uint256[]"
        }
      ],
      "payable": false,
      "stateMutability": "view",
      "type": "function"
    },
    {
      "constant": true,
      "inputs": [
        {
          "internalType": "uint256",
          "name": "id",
          "type": "uint256"
        }
      ],
      "name": "getTask",
      "outputs": [
        {
          "internalType": "uint256",
          "name": "",
          "type": "uint256"
        },
        {
          "internalType": "uint256",
          "name": "",
          "type": "uint256"
        },
        {
          "internalType": "string",
          "name": "",
          "type": "string"
        },
        {
          "internalType": "bool",
          "name": "",
          "type": "bool"
        }
      ],
      "payable": false,
      "stateMutability": "view",
      "type": "function"
    }
  ],
  "bytecode": "0x608060405234801561001057600080fd5b50610714806100206000396000f3fe608060405234801561001057600080fd5b506004361061004c5760003560e01c8063111002aa146100515780631d65e77e1461010c5780635357316e146101cc578063bcd14805146101fa575b600080fd5b61010a6004803603602081101561006757600080fd5b810190808035906020019064010000000081111561008457600080fd5b82018360208201111561009657600080fd5b803590602001918460018302840111640100000000831117156100b857600080fd5b91908080601f016020809104026020016040519081016040528093929190818152602001838380828437600081840152601f19601f820116905080830192505050505050509192919290505050610259565b005b6101386004803603602081101561012257600080fd5b81019080803590602001909291905050506103d7565b604051808581526020018481526020018060200183151515158152602001828103825284818151815260200191508051906020019080838360005b8381101561018e578082015181840152602081019050610173565b50505050905090810190601f1680156101bb5780820380516001836020036101000a031916815260200191505b509550505050505060405180910390f35b6101f8600480360360208110156101e257600080fd5b8101908080359060200190929190505050610501565b005b6102026105e2565b6040518080602001828103825283818151815260200191508051906020019060200280838360005b8381101561024557808201518184015260208101905061022a565b505050509050019250505060405180910390f35b600080815480929190600101919050555060405180608001604052806000548152602001428152602001828152602001600015158152506002600080548152602001908152602001600020600082015181600001556020820151816001015560408201518160020190805190602001906102d492919061063a565b5060608201518160030160006101000a81548160ff021916908315150217905550905050600160005490806001815401808255809150509060018203906000526020600020016000909192909190915055507faaea5a85c9c3b7b12c48d96193f953955bc3d1b2b0790405eb9b4aa2973a113160005442836040518084815260200183815260200180602001828103825283818151815260200191508051906020019080838360005b8381101561039857808201518184015260208101905061037d565b50505050905090810190601f1680156103c55780820380516001836020036101000a031916815260200191505b5094505050505060405180910390a150565b600080606060008460006002600083815260200190815260200160002060000154141561040357600080fd5b85600260008881526020019081526020016000206001015460026000898152602001908152602001600020600201600260008a815260200190815260200160002060030160009054906101000a900460ff16818054600181600116156101000203166002900480601f0160208091040260200160405190810160405280929190818152602001828054600181600116156101000203166002900480156104ea5780601f106104bf576101008083540402835291602001916104ea565b820191906000526020600020905b8154815290600101906020018083116104cd57829003601f168201915b505050505091509450945094509450509193509193565b8060006002600083815260200190815260200160002060000154141561052657600080fd5b6002600083815260200190815260200160002060030160009054906101000a900460ff16156002600084815260200190815260200160002060030160006101000a81548160ff0219169083151502179055507fc63c34089ec3ca7025b2576e9e17e226d1e6c33f64661975d35df1cea0c0a60d826002600085815260200190815260200160002060030160009054906101000a900460ff1660405180838152602001821515151581526020019250505060405180910390a15050565b6060600180548060200260200160405190810160405280929190818152602001828054801561063057602002820191906000526020600020905b81548152602001906001019080831161061c575b5050505050905090565b828054600181600116156101000203166002900490600052602060002090601f016020900481019282601f1061067b57805160ff19168380011785556106a9565b828001600101855582156106a9579182015b828111156106a857825182559160200191906001019061068d565b5b5090506106b691906106ba565b5090565b6106dc91905b808211156106d85760008160009055506001016106c0565b5090565b9056fea265627a7a72315820f8949eb5b4ee9d0331f990d051bd66bbfe0d22f0f893d68c8e3171a373e7057164736f6c63430005100032",
  "source": "pragma solidity ^0.5.16;\ncontract TodoList {\n  struct Task {\n    uint id;\n    uint date;\n    string content;\n    bool done;\n  }\n\n  uint private lastTaskId;\n  uint[] private taskIds;\n  mapping(uint => Task) private tasks;\n  \n  event TaskCreated(uint id, uint date, string content);\n  event TaskStatusToggled(uint id, bool done);\n\n  function createTask(string memory _content) public {\n    lastTaskId++;\n    tasks[lastTaskId] = Task(lastTaskId, now, _content, false);\n    taskIds.push(lastTaskId);\n    emit TaskCreated(lastTaskId, now, _content);\n  }\n\n  function toggleTaskStatus(uint id) taskExist(id) public {\n    tasks[id].done = !tasks[id].done;\n    emit TaskStatusToggled(id, tasks[id].done);\n  }\n\n  function getTaskIds() public view returns(uint[] memory) {\n    return taskIds;\n  }\n\n  function getTask(uint id) taskExist(id) public view returns(uint, uint, string memory, bool) {\n    return (id, tasks[id].date, tasks[id].content, tasks[id].done);\n  }\n\n  modifier taskExist(uint id) {\n    require (tasks[id].id != 0);\n    _;\n  }\n}",
  "sourcePath": "/Users/ggolfz/Desktop/newblockchain/todoapp/etheruem/contracts/TodoList.sol",
  "compiler": {
    "name": "solc",
    "version": "0.5.16+commit.9c3226ce.Emscripten.clang"
  },
  "schemaVersion": "3.3.4",
  "updatedAt": "2021-04-05T17:15:43.513Z",
  "networkType": "ethereum",
  "devdoc": {
    "methods": {}
  },
  "userdoc": {
    "methods": {}
  }
}